:100000000C94F0000C9418010C9418010C94180135
:100010000C9418010C9418010C9418010C941801FC
:100020000C9418010C9418010C9418010C941801EC
:100030000C9418010C9418010C9418010C941801DC
:100040000C9473070C9418010C9441070C941B0733
:100050000C9418010C9418010C9418010C941801BC
:100060000C94BD070C94180100407A10F35A00A0BC
:10007000724E18090010A5D4E80000E87648170071
:1000800000E40B54020000CA9A3B000000E1F505B1
:10009000000080969800000040420F000000A086FB
:1000A00001000000102700000000E803000000002D
:1000B0006400000000000A000000000001000000D1
:1000C00000002C76D888DC674F0823DFC1DFAE59EB
:1000D000E1B1B796E5E3E453C63AE651997696E87E
:1000E000E6C28426EB898C9B62ED407C6FFCEFBC02
:1000F0009C9F40F2BAA56FA5F490055A2AF75C932D
:100100006B6CF9676DC11BFCE0E40D47FEF520E662
:10011000B500D0ED902E0300943577050080841E45
:10012000080000204E0A000000C80C333333330FA0
:10013000986E12831141EF8D2114893BE65516CF3D
:10014000FEE6DB18D1844B381BF77C1D901DA4BB49
:10015000E424203284725E228100C9F124ECA1E5FE
:100160003D2700000000240027002A0000000000B6
:10017000250028002B0000000008000201000003F9
:100180000407000000000000000031333A33303A29
:100190003433004175672020312032303230001F67
:1001A0001C1F1E1F1E1F1F1E1F1E1F0000000023DE
:1001B00000260029000404040404040404020202CA
:1001C0000202020303030303030102040810204098
:1001D0008001020408102001020408102000DC083D
:1001E00011241FBECFEFD8E0DEBFCDBF11E0A0E0ED
:1001F000B1E0EAE1F5E202C005900D92AE3AB10736
:10020000D9F723E0AEEAB1E001C01D92AF33B207E7
:10021000E1F710E0C0EFD0E004C02197FE010E949A
:10022000E40FCF3ED107C9F70E9432090C948B121C
:100230000C940000EEE7F2E0A089B18982E08C9393
:10024000A485B5851C92A685B7858FEC8C93108EFE
:10025000A489B58986E08C93A289B3898C91806149
:100260008C93A289B3898C9188608C93A289B3897D
:100270008C9180688C930288F389E02D80818F7D3A
:1002800080830895982F20917D0281E0213208F02B
:1002900043C0809159028111FCCF80917C0232E0F1
:1002A00030935902909358029FEF90935702109207
:1002B000560220935502ACE5B2E0E5E3F2E090E0AF
:1002C000291331C01092340290913402880F892B87
:1002D0008093340280913302813049F510923302C9
:1002E000809134028093BB008091BC0083FDF8CFE5
:1002F00085EC8093BC00809159028230E1F38091BB
:1003000057028F3FB1F0809157028032A1F0809167
:100310005702803391F084E010925B0210927D02CC
:1003200010925A0208953D9131939F5FC9CF85EE97
:10033000E0CF80E0F1CF82E0EFCF83E0EDCF089512
:100340000895AF92BF92CF92DF92EF92FF920F93F8
:100350001F93CF93DF936C017B018B01040F151F5B
:10036000EB015E01AE18BF08C017D10759F06991C3
:10037000D601ED91FC910190F081E02DC601099527
:10038000892B79F7C501DF91CF911F910F91FF90D4
:10039000EF90DF90CF90BF90AF900895FC01538D08
:1003A000448D252F30E0842F90E0821B930B54174F
:1003B00010F0CF96089501970895FC01918D828DDC
:1003C000981761F0A28DAE0FBF2FB11D5D968C9175
:1003D000928D9F5F9F73928F90E008958FEF9FEFB4
:1003E0000895FC01918D828D981731F0828DE80F70
:1003F000F11D858D90E008958FEF9FEF0895FC012A
:10040000918D228D892F90E0805C9F4F821B9109F6
:100410008F73992708958EE792E00E94FF0121E0F3
:10042000892B09F420E0822F089580E090E0892B49
:1004300029F00E940B0281110C9400000895FC0128
:10044000A48DA80FB92FB11DA35ABF4F2C91848D35
:1004500090E001968F739927848FA689B7892C9392
:10046000A089B1898C91837080648C93938D848DE5
:10047000981306C00288F389E02D80818F7D8083E8
:100480000895EF92FF920F931F93CF93DF93EC01A8
:1004900081E0888F9B8D8C8D98131AC0E889F9892B
:1004A000808185FF15C09FB7F894EE89FF8960832E
:1004B000E889F98980818370806480839FBF81E0AF
:1004C00090E0DF91CF911F910F91FF90EF900895F1
:1004D000F62E0B8D10E00F5F1F4F0F731127E02ECC
:1004E0008C8D8E110CC00FB607FCFACFE889F98904
:1004F000808185FFF5CFCE010E941F02F1CFEB8DE9
:10050000EC0FFD2FF11DE35AFF4FF0829FB7F894D7
:100510000B8FEA89FB8980818062CFCFCF93DF93F5
:10052000EC01888D8823B9F0AA89BB89E889F9890B
:100530008C9185FD03C0808186FD0DC00FB607FC40
:10054000F7CF8C9185FFF2CF808185FFEDCFCE0173
:100550000E941F02E9CFDF91CF910895833081F08F
:1005600028F4813099F08230A9F008958730A9F0FD
:100570008830C9F08430B1F4809180008F7D03C051
:10058000809180008F7780938000089584B58F7765
:1005900084BD089584B58F7DFBCF8091B0008F77A7
:1005A0008093B00008958091B0008F7DF9CFCF93F4
:1005B000DF93282F30E0F901EA58FE4F8491F901CA
:1005C000E753FE4FD491F901EB54FE4FC491CC2375
:1005D000A1F081110E94AE02EC2FF0E0EE0FFF1FA0
:1005E000E555FE4FA591B491EC91ED2381E090E0AB
:1005F00009F480E0DF91CF91089580E090E0FACF98
:100600001F93CF93DF93282F30E0F901EA58FE4F74
:100610008491F901E753FE4FD491F901EB54FE4F59
:10062000C491CC23A9F0162F81110E94AE02EC2FA9
:10063000F0E0EE0FFF1FE459FE4FA591B4918FB784
:10064000F894EC91111108C0D095DE23DC938FBF94
:10065000DF91CF911F910895DE2BF8CFCF93DF93D9
:1006600090E0FC01E753FE4F24918B549E4FFC0118
:1006700084918823D1F090E0880F991FFC01EE59F6
:10068000FE4FA591B491FC01E459FE4FC591D49160
:1006900061110EC09FB7F8948C91E22FE0958E23E4
:1006A0008C932881E223E8839FBFDF91CF91089547
:1006B0008FB7F894EC91E22BEC938FBFF6CF3FB756
:1006C000F8948091F6019091F701A091F801B09112
:1006D000F90126B5A89B05C02F3F19F00196A11D71
:1006E000B11D3FBFBA2FA92F982F8827BC01CD017C
:1006F000620F711D811D911D42E0660F771F881FDB
:10070000991F4A95D1F708958F929F92AF92BF9209
:10071000CF92DF92EF92FF926B017C010E945F0308
:100720004B015C01C114D104E104F104B9F00E9451
:100730005F03681979098A099B09683E734081053E
:10074000910580F321E0C21AD108E108F10888EE92
:10075000880E83E0981EA11CB11CE4CFFF90EF909F
:10076000DF90CF90BF90AF909F908F9008958F9221
:100770009F92AF92BF92EF92FF920F931F93CF93EE
:10078000DF93E0EDF1E0C491ECEBF1E0E491F0E017
:10079000EE0FFF1FE555FE4F0591149110920C02CC
:1007A00010920D0210920E0210920F02109210027F
:1007B00061E087E00E942E0360E087E00E94000372
:1007C00062E170E080E090E00E94840361E087E0F5
:1007D0000E9400038BE990E00197F1F760E087E069
:1007E0000E942E0380E991E0F80120812C23C9F4B6
:1007F0000197D1F780E090ECA9E7B4EC8093040274
:1008000090930502A0930602B0930702809308021A
:1008100090930902A0930A02B0930B028EEF9FEF10
:1008200070C080E991E0F80120812C2319F0019734
:10083000D1F7E0CF88E2F82ED0E8E12C80E991E012
:10084000F80120812C2319F40197D1F7D3CF0E940E
:100850005F034B015C0180E991E0F80120812C23CA
:1008600019F00197D1F7C6CF0E945F036819790983
:100870008A099B09693271058105910538F0EE2DD1
:10088000F0E0EC5FFD4F80858D2B8087D69511F4CD
:10089000E394D0E8FA94F110D1CF61E087E00E94B0
:1008A0002E0361E087E00E940003C0910C026C2FD0
:1008B00070E090E080E00E94870F609304027093E4
:1008C00005028093060290930702D0910E026D2FCD
:1008D00070E090E080E00E94870F609308027093C0
:1008E000090280930A0290930B02CD0F81E090E001
:1008F00020911002C21302C090E080E09195819592
:100900009109DF91CF911F910F91FF90EF90BF90D0
:10091000AF909F908F90089585ED8093BC0080915B
:10092000BC0084FDFCCF1092590208952091CE01A5
:10093000260F3327331F21323105ECF42091590261
:10094000FC0190E080E0243069F082E00895A091FD
:10095000CE012191AC0142555E4FA40FB52FB11DC0
:100960002C930196861798F38091CE01680F6093BF
:10097000CE0180E0089581E008950895E09112028B
:1009800080911102E81730F4F0E0ED5EFD4F8081B8
:1009900090E008958FEF9FEF08959091120280915B
:1009A00011022FEF3FEF981748F4E92FF0E0ED5ECA
:1009B000FD4F208130E09F5F90931202C90108959E
:1009C0008091110290911202891B990B0895CF9288
:1009D000DF92EF92FF920F931F93CF93DF937C01EF
:1009E000CB018A0120915A02222389F0EB016B018D
:1009F000C40ED51ECC15DD0569F06991D701ED91C6
:100A0000FC910190F081E02DC7010995F3CF642F8F
:100A10000E949604C801DF91CF911F910F91FF9022
:100A2000EF90DF90CF900895CF93DF931F92CDB7D3
:100A3000DEB7698320915A022223F9F020917D02CA
:100A4000203258F021E030E0FC013383228390E033
:100A500080E00F90DF91CF91089580915B02E82FA5
:100A6000F0E0E45AFD4F998190838F5F80935B02A1
:100A700080937D0281E090E0ECCF61E0CE010196B1
:100A80000E949604F7CF089590E080E00895FC015D
:100A9000908190539A3008F090E0818180532AE051
:100AA000929F800D11240895909159029111FCCFCD
:100AB000282F91E090935902909358023FEF309382
:100AC000570210925602380F309355029093340219
:100AD00090913402906D9093340290913302913052
:100AE00019F510923302909134029093BB009091CB
:100AF000BC0093FDF8CF95EC9093BC009091590207
:100B00009130E1F390915602981710F4209156021B
:100B1000A5E3B2E0E3E1F2E080E0821307C01092C7
:100B2000120280931102089595EEE6CF9D91919364
:100B30008F5FF3CFCF93DF93EC0160E08E810E9453
:100B4000000361E08E810E94000360E08E810E94BC
:100B500000038BE891E00197F1F7DF91CF910895C1
:100B6000CF92DF92EF92FF920F931F93CF93DF9379
:100B70006C017C0187E0E80EF11CD0E0C0E0062F9C
:100B800010E0B8010C2E02C0759567950A94E2F743
:100B90006170F70181917F010E9400032196C430AA
:100BA000D10579F7C601DF91CF911F910F91FF9089
:100BB000EF90DF90CF900C949A05CF92DF92EF9256
:100BC000FF920F931F93CF93DF93EC01F62E642FC8
:100BD0008C810E9400038D818F3F19F060E00E949C
:100BE00000030F2D10E08F8584FF25C06E0187E084
:100BF000C80ED11CF12CE12CB8010E2C02C0759549
:100C000067950A94E2F76170F60181916F010E9485
:100C10000003FFEFEF1AFF0A88E0E816F10461F71E
:100C2000CE01DF91CF911F910F91FF90EF90DF9058
:100C3000CF900C949A05B80184E0759567958A95D4
:100C4000E1F7CE010E94B0056F2DCE01DF91CF916B
:100C50001F910F91FF90EF90DF90CF900C94B00513
:100C600040E061E087E293E00E94DD058BE39FE1D5
:100C70000197F1F70895CF93DF93823029F4909193
:100C8000360398609093360380933A0310923B03A7
:100C900080E480933C0380E180933D0380E5809372
:100CA0003E0361E080912B030E942E0380912C0370
:100CB0008F3F19F061E00E942E0361E080912D03C7
:100CC0000E942E03C7E2D3E09E0127523340809159
:100CD000360384FD0BC084E090E021962817390785
:100CE00044F461E08E810E942E03EECF88E090E014
:100CF000F4CF8BE39DE00197F1F760E080912B0347
:100D00000E94000360E080912D030E940003809107
:100D10002C038F3F19F060E00E94000360913603BE
:100D200064FD3DC063E087E293E00E94B005CBE440
:100D3000D6E4CE010197F1F763E087E293E00E94E9
:100D4000B0052197F1F763E087E293E00E94B005D8
:100D500083E592E00197F1F762E087E293E00E9479
:100D6000B00560913603606240E087E293E00E9444
:100D7000DD0584E08093370340E06CE087E293E098
:100D80000E94DD050E94300682E08093380340E037
:100D900066E087E293E0DF91CF910C94DD0560621D
:100DA00040E087E293E00E94DD058BE496E4019742
:100DB000F1F760913603606240E087E293E00E94C1
:100DC000DD0583E592E00197F1F7609136036062FB
:100DD00040E087E293E00E94DD05C3CF41E00E943E
:100DE000DD0581E090E00895FB0101900020E9F726
:100DF0003197AF01461B570BDC01ED91FC9102804E
:100E0000F381E02D0994CF93DF93BC018EE792E04C
:100E10000E94F406EC016DE471E08EE792E00E941E
:100E2000F4068C0F9D1FDF91CF910895BC0187E2DE
:100E300093E00C94F4061F920F920FB60F921124B8
:100E40002F933F934F935F936F937F938F939F93D2
:100E5000AF93BF93EF93FF938EE792E00E941F0240
:100E6000FF91EF91BF91AF919F918F917F916F9182
:100E70005F914F913F912F910F900FBE0F901F9058
:100E800018951F920F920FB60F9211242F938F93E4
:100E90009F93EF93FF93E0918E02F0918F028081F8
:100EA000E0919402F091950282FD1BC090818091A7
:100EB00097028F5F8F7320919802821741F0E09123
:100EC0009702F0E0E258FD4F958F80939702FF91D3
:100ED000EF919F918F912F910F900FBE0F901F90C8
:100EE00018958081F4CF1F920F920FB60F921124A4
:100EF0002F933F938F939F93AF93BF938091F20172
:100F00009091F301A091F401B091F5013091F101BC
:100F100023E0230F2D3758F50196A11DB11D209315
:100F2000F1018093F2019093F301A093F401B09347
:100F3000F5018091F6019091F701A091F801B0912F
:100F4000F9010196A11DB11D8093F6019093F7015F
:100F5000A093F801B093F901BF91AF919F918F9148
:100F60003F912F910F900FBE0F901F90189526E87C
:100F7000230F0296A11DB11DD2CF1F920F920FB663
:100F80000F9211242F933F934F935F936F937F930F
:100F90008F939F93AF93BF93EF93FF938091B9008B
:100FA000887F803609F44AC0F0F5883209F4A7C07A
:100FB00018F5803109F49BC0B8F4882309F4F9C00E
:100FC000883009F494C0FF91EF91BF91AF919F9148
:100FD0008F917F916F915F914F913F912F910F90E2
:100FE0000FBE0F901F901895883109F488C0803289
:100FF00051F78093570214C0803409F49DC040F427
:101000008033B9F38833F9F68093570285ECB0C08A
:10101000803509F485C0883509F496C0883499F67E
:101020000E948C04D0CF883909F48CC038F58837F9
:1010300029F050F4883611F0803729F683E0809348
:1010400059021092F00157C0883809F47BC08039EA
:1010500019F0803809F0B7CF8091F001803208F0A4
:1010600071C0E091F00181E08E0F8093F0018091DA
:10107000BB00F0E0E053FE4F80833DC0803B39F081
:10108000E0F4803A09F479C0883A09F09CCF84E012
:10109000809359021092CF011092CE01E091FC0191
:1010A000F091FD0109958091CE0181110FC081E081
:1010B0008093CE011092AE0109C0803C09F4A6CF06
:1010C000883C09F4A3CF883B09F07DCFE091CF01A4
:1010D00081E08E0F8093CF01F0E0E255FE4F8081DA
:1010E0008093BB009091CF018091CE0129C0809167
:1010F00034028093BB0085EC8093BC0064CF909158
:10110000560280915502981758F5E091560281E0F9
:101110008E0F80935602F0E0EB5CFD4F8081E9CFAB
:10112000E091560281E08E0F809356028091BB00C1
:10113000F0E0EB5CFD4F8083909156028091550268
:101140009817C8F285E8D8CFE091560281E08E0F5B
:10115000809356028091BB00F0E0EB5CFD4F8083F2
:101160008091580281115CCF81E08093330284EA40
:101170008093BC001092590226CF85EC8093BC006E
:10118000109259028091F001803230F4E091F00128
:10119000F0E0E053FE4F10826091F00170E0E091CA
:1011A000FA01F091FB0180ED91E009951092F001B8
:1011B0000ACF1092570234CFEEE7F2E01382128288
:1011C00088EE93E0A0E0B0E084839583A683B783A4
:1011D00021E231E03183208325EC30E0358724871C
:1011E00024EC30E03787268720EC30E0318B208BF1
:1011F00021EC30E0338B228B22EC30E0358B248BDA
:1012000026EC30E0378B268B118E128E138E148EC7
:10121000EBE1F3E01382128284839583A683B78384
:1012200083E391E091838083E7E2F3E0138212820B
:1012300085E491E0918380838CE084838FEF8583C4
:101240008BE0868385E0878384E0808783E08187E5
:1012500082E082871386148615861686178681E0BB
:101260000C943B06CF93DF93CDB7DEB7A5970FB6AF
:10127000F894DEBF0FBECDBF789484B5826084BD84
:1012800084B5816084BD85B5826085BD85B581608A
:1012900085BD80916E00816080936E001092810008
:1012A00080918100826080938100809181008160C3
:1012B0008093810080918000816080938000809184
:1012C000B10084608093B1008091B0008160809310
:1012D000B00080917A00846080937A0080917A00D7
:1012E000826080937A0080917A00816080937A0096
:1012F00080917A00806880937A001092C1000E94E9
:101300001A0160E089E00E942E0360E08AE00E94FA
:101310002E0361E086E00E942E030E941A0119A2AA
:1013200080E388A3BE01605E7F4F8EE792E00E945B
:10133000F4066DE471E08EE792E00E94F40682E02C
:101340000E943B06109212021092110210925B0250
:1013500010927D021092590281E0809358021092FF
:10136000330261E082E10E94000361E083E10E94B8
:1013700000038091B9008E7F8093B9008091B900FD
:101380008D7F8093B90088E48093B80085E48093D2
:10139000BC008FE991E09093FD018093FC0180EA0D
:1013A00091E09093FB018093FA014BE050E063E9F8
:1013B00071E09E012F5F3F4F7901C9010E94100D1E
:1013C000CE010A960E944705082FE981E154E331D6
:1013D00018F50E2E000CFF0BE051F64F0C94E40FA5
:1013E0007E0B0C0A0C0A920B0C0A940B0C0A0C0ACA
:1013F0000C0A030A0C0A0C0A850B900B8E0B0C0AC4
:101400000C0A0C0A8C0B8A8111E0813629F08B8141
:1014100016E08E3609F017E0CE0105960E944705CA
:10142000B82E48E050E06AE871E0C7010E94100D54
:10143000C7010E944705A82ECE0104960E944705C9
:10144000982ECE0107960E944705882EDD24D3945E
:10145000D0925A0288E680937C0210925B0210922E
:101460007D0260E08BE193E00E9414058AE0C82EC3
:10147000882D6C2D0E94C40F682F660F680F660FB1
:10148000680D8BE193E00E941405892D6C2D0E945C
:10149000C40F682F660F680F660F690D8BE193E02C
:1014A0000E9414058A2D6C2D0E94C40F682F660FB0
:1014B000680F660F6A0D8BE193E00E94140560E0EF
:1014C0008BE193E00E9414058B2D6C2D0E94C40FBC
:1014D000682F660F680F660F6B0D8BE193E00E941B
:1014E0001405812F6C2D0E94C40F682F660F680FA2
:1014F000660F610F8BE193E00E941405802F6C2D25
:101500000E94C40F682F660F680F660F600F8BE193
:1015100093E00E94140581E00E944201D0925A0299
:1015200010925B0210927D0260E08BE193E00E94DA
:10153000140581E00E94420181E090E00E94540580
:101540008BE193E00E94CD0487FF04C080E591E029
:101550000E9403073E0132E2630E711C552453942E
:10156000BCE04B2E22242394312C50925A0288E660
:1015700080937C0210925B0210927D0260E08BE10E
:1015800093E00E94140581E00E94420187E090E010
:101590000E9454058BE193E00E94CD048BE193E01F
:1015A0000E94CD044C018BE193E00E94CD045C01CC
:1015B0008BE193E00E94CD048BE193E00E94CD0487
:1015C0006C018BE193E00E94CD048C018BE193E0F0
:1015D0000E94CD044091FE015091FF01411551053B
:1015E00009F0E1C0C401F4E095958795FA95E1F71B
:1015F0008F709927982F990F990F891B880F880E44
:10160000C501A4E095958795AA95E1F78F70992774
:10161000982F990F990F182F191B110F1A0D812F41
:10162000642D0E94C40F1C3008F080C01F928F925E
:101630001F929F9324E631E03F932F93FF92EF9206
:101640000E94EA0F0E943006C7010E94160764EF4D
:1016500071E080E090E00E9484030FB6F894DEBF52
:101660000FBECDBF133009F483C01F3009F47DC015
:10167000113109F47AC0143109F477C0153109F435
:1016800074C089E00E94D702019709F06FC1809170
:10169000020290910302892B09F068C18091FE013A
:1016A0009091FF0101968530910509F45AC19093FC
:1016B000FF018093FE0130920302209202028AE031
:1016C0000E94D702019739F48091000290910102A3
:1016D000892B09F45DC18AE00E94D702892B09F4A5
:1016E00075C120E030E0232B09F43FCF0E940B02AC
:1016F000882309F433CF0E94000030CF8B8114E09F
:10170000823709F489CE18E087CE8B8113E08237C7
:1017100009F482CE15E080CE19E07ECE1AE07CCEB0
:101720001BE07ACE1CE078CE12E076CE1F928F922C
:101730001F929F9380E791E09F938F93FF92EF9288
:101740000E94EA0F0E943006C7010E94160764EF4C
:1017500071E080E090E00E9484030FB6F894DEBF51
:101760000FBECDBF1E3009F080CF81108ACF06C0DA
:10177000811087CF8CE791E00E94030761E086E04B
:101780000E94000368E97AE380E090E00E9484030D
:1017900060E086E00E94000368E97AE380E090E080
:1017A0000E9484036ECF960164E0359527956A9573
:1017B000E1F72F703327322F330F330F231B220F04
:1017C000C20E980174E0359527957A95E1F72F7050
:1017D0003327322F330F330F231B220F020F9C01AD
:1017E000E4E035952795EA95E1F72F703327922F9E
:1017F000990F990F122F191B110F180F812E912C71
:10180000540190E3A91A98EFB90A4130510509F043
:101810003BC00E943006D12CEFE9F1E081E0801757
:1018200030F49491C90ED11C8F5F3196F8CF0330FC
:1018300028F0137019F42FEFC21AD20AC5018D5C7B
:10184000974096958795969587952DE631E0829EEF
:101850005001839EB00C929EB00C11248A0D9B1DEA
:1018600005968C0D9D1D67E070E00E94D00F880FDB
:10187000991F880F991F80509F4F0E94160764EF91
:1018800071E080E090E08CCF4230510521F5C50138
:1018900064E670E00E94D00F9F938F931F92CF92C7
:1018A0001F920F9388E891E09F938F93FF92EF929E
:1018B0000E94EA0F0E943006C7010E94160764EFDB
:1018C00071E080E090E00E9484030FB6F894DEBFE0
:1018D0000FBECDBFD6CE4330510559F50E94B70398
:1018E000609108027091090280910A0290910B02A6
:1018F000830120E042E00E94F20C7F926F9225E982
:1019000031E03F932F93FF92EF920E94EA0F0E94E3
:101910003006C7010E94160768EE73E080E090E091
:101920000E9484030F900F900F900F900F900F90D4
:10193000A8CE4430510509F0A4CE0E94B7036091AF
:1019400004027091050280910602909107028301C2
:1019500020E042E00E94F20C7F926F922BE931E08E
:10196000D0CF1092FF011092FE01A5CE89E00E9417
:10197000D702892B09F0A3CE809102029091030235
:10198000019709F09CCE109203021092020297CEAA
:1019900080911C01882399F010921C010E9430064E
:1019A00082EA91E00E94160760ED77E080E090E027
:1019B0000E948403309201022092000292CE509243
:1019C0001C010E94300688EA91E0ECCF8091000271
:1019D00090910102019709F084CE109201021092B9
:1019E00000027FCEEF920F931F93CF93DF93E80116
:1019F00034E047FD34E1042E000C550B57FF03C0C3
:101A0000519541955109E32E022F242FAE010E94DA
:101A1000190DCE01DF91CF911F910F91EF90089595
:101A2000FB01DC0102C005900D9241505040D8F7F7
:101A30000895A9E0B0E0EFE1FDE00C94560F6A01D3
:101A4000F22EB02E102FFBE3AF2EA01608F41BE3EE
:101A50001F5F012F27E0AE014F5F5F4F0E94780E9E
:101A6000BC018981982F9970913009F43FC09BE2A5
:101A7000E1FC04C09E2D9170E0FC3AC05E2D5071D7
:101A8000E82FE87083FF46C084E0911101C083E035
:101A9000EF2DE81B8F1508F0E0E0D6018E2F20E235
:101AA000552351F1992329F0D6019C93C601019643
:101AB0006C0196012D5F3F4FE2FE24C08EE4D601FB
:101AC0008C9391E411969C93119712968C93D90163
:101AD0008E2F90E281111BC0E20FF32FF11D1082B7
:101AE0008EEF9FEF2996ECE00C94720F9DE2C6CF2B
:101AF00090E2C4CF2D9381508111FCCFCE0ED11C2A
:101B0000E0E0D0CF8EE6D6018C9391E6DBCF9D93BB
:101B10008150E0CF482F447082FF3DC084E0911196
:101B200001C083E08F1510F4EF2DE81BD6018E2F36
:101B300020E2552309F1992329F0D6019C93C6018F
:101B400001966C0196012D5F3F4FE2FE1BC089E4B8
:101B5000D6018C938EE411968C93119786E412969D
:101B60008C93D9018E2F90E2882309F4B5CF9D93F1
:101B70008150FACF2D9381508111FCCFCE0ED11C14
:101B8000E0E0D9CF89E6D6018C938EE611968C934E
:101B9000119786E6E4CF9B0177FF02C030E020E09A
:101BA000A1E0B0E0911102C0B0E0A0E0F9013196EF
:101BB000AE0FBF1F8B2C912CBB2009F461C05401C8
:101BC000EFEFAE1ABE0AAA0DBB1DFA161B0619F0DE
:101BD00014F04F2D4A1B511188C0E3FC59C0760107
:101BE000A42FB0E2A1114FC0C40ED11C992309F457
:101BF0005BC040E0D6011196F60190836D0155233C
:101C000009F448C0012F060F9A81582F507184FFA4
:101C100003C0913309F4015010160CF047C009308D
:101C200008F008E0EEE2FE2E5B01A01AB108850183
:101C30009194819491082F3F320729F4D601FC92A8
:101C4000F60131966F016217730794F102171307BB
:101C50007CF5DB01A21BB30BAA24A394B12CAC0E20
:101C6000BD1EAA0DBB1D11968C9121503109D601C4
:101C7000119628153905F4F0F60180836D01DBCF4C
:101C8000B12CA12CA0CFF701B1937F01A150AACF15
:101C90009111B0CFD601942F50E302C05D939150C3
:101CA0009111FCCFC40ED11C40E0ACCF01E0BACF03
:101CB00080E3DBCF6217730731F4963388F49533F2
:101CC00011F4552369F0F6018083FD01842F90E221
:101CD000811108C0A40FB11D1C9290E080E002CFDA
:101CE00081E3F1CF91938150F3CF911183CF8ACFCC
:101CF000283008F027E03327DA01990F311D87FDDE
:101D0000916000966105710539F432602E5F3D9354
:101D100030E32A95E1F708959F3F30F08038710550
:101D2000610509F03C5F3C5F3D93913008F08068AD
:101D3000911DDF93CF931F930F93FF92EF92192F73
:101D4000987F9695E92F96959695E90FFF27EE5384
:101D5000FF4F99273327EE24FF24A701E7010590C1
:101D60000894079428F4360FE71EF81E491F511DEA
:101D7000660F771F881F991F0694A1F70590079497
:101D800028F4E70EF81E491F561FC11D770F881F44
:101D9000991F661F0694A1F70590079428F4F80E82
:101DA000491F561FC71FD11D880F991F661F771F18
:101DB0000694A1F70590079420F4490F561FC71FFA
:101DC000D81F990F661F771F881F0694A9F7849163
:101DD0001095177041F0D695C79557954795F7948C
:101DE000E7941A95C1F7E8E6F0E06894159015912C
:101DF00035916591959105907FE27395E118F10A0F
:101E0000430B560BC90BD009C0F7E10CF11E431F61
:101E1000561FC91FD01D7EF4703311F48A95E6CF8A
:101E2000E894015030F0080F0AF40027021708F474
:101E3000202F2395022F7A3328F079E37D932A957A
:101E4000E9F710C07D932A9589F6069497956795D2
:101E5000379517951794E118F10A430B560BC90BE8
:101E6000D00998F023957E9173957A3308F070E34A
:101E70007C932013B8F77E9170617D9330F0839549
:101E800071E37D9370E32A95E1F71124EF90FF90C1
:101E90000F911F91CF91DF91992787FD909508951C
:101EA0002F923F924F925F926F927F928F929F926A
:101EB000AF92BF92CF92DF92EF92FF920F931F9358
:101EC000CF93DF93CDB7DEB7CA1BDB0B0FB6F89409
:101ED000DEBF0FBECDBF09942A88398848885F8449
:101EE0006E847D848C849B84AA84B984C884DF80BA
:101EF000EE80FD800C811B81AA81B981CE0FD11D9E
:101F00000FB6F894DEBF0FBECDBFED010895E89483
:101F100009C097FB3EF490958095709561957F4F31
:101F20008F4F9F4F9923A9F0F92F96E9BB279395DF
:101F3000F695879577956795B795F111F8CFFAF4EF
:101F4000BB0F11F460FF1BC06F5F7F4F8F4F9F4F20
:101F500016C0882311F096E911C0772321F09EE87E
:101F6000872F762F05C0662371F096E8862F70E0E4
:101F700060E02AF09A95660F771F881FDAF7880FBE
:101F80009695879597F90895991B79E004C0991F54
:101F9000961708F0961B881F7A95C9F780950895C3
:101FA000AA1BBB1B51E107C0AA1FBB1FA617B7077F
:101FB00010F0A61BB70B881F991F5A95A9F780959B
:101FC0009095BC01CD010895EE0FFF1F0590F4918F
:101FD000E02D0994AEE0B0E0E0EFFFE00C945E0F7E
:101FE0000D891E8986E08C831A8309838FEF9FE712
:101FF0009E838D83AE01475E5F4F6F89788DCE01E2
:1020000001960E940D102F813885020F131FF801D1
:1020100010822E96E4E00C947A0FABE0B0E0E3E19E
:10202000F0E10C94500F7C013B018A01FC01178206
:102030001682838181FFC8C1CE0101965C01F70140
:102040009381F30193FD859193FF81913F01882353
:1020500009F453C1853239F493FD859193FF819141
:102060003F01853229F4B70190E00E94FD11E7CFCE
:10207000912C212C312CFFE1F31538F08B3211F12A
:1020800090F4803209F1833229F137FC3CC020ED15
:10209000280F2A3050F536FE20C08AE0989E200D89
:1020A0001124922E06C08D3291F0803371F768941E
:1020B00030F8F30193FD859193FF81913F018111E8
:1020C000DACF21C0689431F8689432F8F2CF68947E
:1020D00033F8EFCF689434F8ECCFEAE02E9E200D71
:1020E0001124222E689435F8E4CF8E3229F436FC80
:1020F00004C1689436F8DDCF8C3619F4689437F84B
:10210000D8CF8836B1F2982F9F7D95549330E0F068
:102110008336A1F18337C1F1833509F063C028010B
:10212000F2E04F0E511CF801C080D180692D70E0A3
:1021300036FC02C06FEF7FEFC6010E94E7114C0131
:10214000689437F882010AC00C5F1F4FFFE3F983E0
:1021500088248394912C6501E89437F833FE2DC0D0
:10216000522C8114910471F5552009F468CFB70100
:1021700080E290E00E94FD115A94F6CFF801808130
:1021800089830E5F1F4FE4CF2801F2E04F0E511CF0
:10219000F801C080D180692D70E036FC02C06FEF7D
:1021A0007FEFC6010E94F2114C018201D5CFB70129
:1021B00080E290E00E94FD112A942814190409F08D
:1021C000B0F7CECFF60137FC859137FE81916F01D4
:1021D000B70190E00E94FD1151105A94F1E08F1A5E
:1021E0009108BFCF843619F0893609F077C0F8011D
:1021F00037FE6BC060817181828193810C5F1F4FBC
:10220000F32DFF763F2E97FF09C09095809570952E
:1022100061957F4F8F4F9F4F689437F82AE030E0E9
:10222000A5010E942D12C82ECA188C2C432C36FEF4
:102230000CC0E89440F8C91440F434FE05C032FCE8
:1022400003C0F32DFE7E4F2E892C44FE95C0FE0167
:10225000EC0DF11D8081803309F087C0242D297E8B
:10226000422E842D8870582E43FC95C040FE8FC0AE
:102270009C2C821418F42C0C922C981844FE91C0BB
:10228000B70180E390E00E94FD1142FE09C088E79B
:1022900090E041FE02C088E590E0B7010E94FD1188
:1022A000C91408F48AC0CA94D12C9FEFC91AD90A5C
:1022B000CA0CDB1CF60182916F01B70190E00E940D
:1022C000FD11AC14BD04B1F74FCF60817181072EB1
:1022D000000C880B990B0E5F1F4F92CFD32CE89404
:1022E000D4F82AE030E0853739F1232D297FD22E2A
:1022F0008F3601F148F48835A9F0F701868197817E
:102300002B96E2E10C946C0F803749F08837A9F7DF
:10231000D4FE02C06894D2F820E130E00DC0689489
:10232000D4F8F6CF34FE03C0822F8660D82E20E189
:1023300032E002C028E030E0F801D7FE0FC0608133
:102340007181828193810C5F1F4FA5010E942D1224
:10235000C82ECA183D2CE89437F867CF6081718188
:1023600090E080E00E5F1F4FF0CF42FC02C08394EC
:1023700078CF8394839475CF842D867809F471CFB8
:10238000F6CFB70180E290E00E94FD1183948214A1
:10239000C0F3512C73CF522C5818821408F46ECF0E
:1023A000F8CF842D867809F47BCF8BE241FE80E262
:1023B00047FC8DE2B70190E071CFB70180E390E078
:1023C0000E94FD119A946CCF8FEF9FEF99CFFC0183
:1023D0000590615070400110D8F7809590958E0F50
:1023E0009F1F0895FC016150704001900110D8F7C3
:1023F000809590958E0F9F1F08950F931F93CF93F5
:10240000DF93182F092FEB018B8181FD09C01FEF8E
:102410000FEF812F902FDF91CF911F910F91089592
:1024200082FF14C02E813F818C819D81281739073E
:102430003CF4E881F981CF01019699838883108368
:102440008E819F8101969F838E83E3CFE885F985F6
:10245000812F0995892BA1F3DACFFA01AA27283019
:1024600051F1203181F1E8946F936E7F6E5F7F4F61
:102470008F4F9F4FAF4FB1E03ED0B4E03CD0670FDD
:10248000781F891F9A1FA11D680F791F8A1F911D30
:10249000A11D6A0F711D811D911DA11D20D009F480
:1024A00068943F912AE0269F11243019305D3193C2
:1024B000DEF6CF010895462F4770405D4193B3E0AB
:1024C0000FD0C9F7F6CF462F4F70405D4A3318F052
:1024D000495D31FD4052419302D0A9F7EACFB4E003
:1024E000A6959795879577956795BA95C9F70097BB
:1024F0006105710508959B01AC010A2E069457955C
:10250000479537952795BA95C9F7620F731F841FB2
:0A251000951FA01D0895F894FFCF59
:10251A0053554E004D4F4E00545545005745440003
:10252A0054485500465249005341540001000000E6
:10253A00004102A101CE018E02FF01DD01F101007D
:10254A000000001405E7044405BD04E004CD04BE00
:10255A000400000000EE06A101440543050D0A002F
:10256A00525443206973204E4F542072756E6E691F
:10257A006E672100253032643A25303264414D00BD
:10258A00253032643A25303264504D0048656C6C0F
:10259A006F20576F726C6400253032642E253032FA
:1025AA00642E256400543A25734300483A2573255E
:0E25BA002500412D4F464600412D4F4E00009A
:00000001FF
